:020000040800F2
:10000000002800205D170008ED160008F316000810
:10001000F9160008FF160008051700080000000088
:100020000000000000000000000000000B170008A6
:100030001717000800000000231700082F170008FA
:10004000A5170008A5170008A5170008A5170008A0
:10005000A5170008A5170008A5170008A517000890
:10006000A5170008A5170008A5170008A517000880
:10007000A5170008A5170008A5170008A517000870
:10008000A5170008A5170008A5170008A517000860
:10009000A5170008A5170008A5170008A517000850
:1000A000A5170008A5170008A5170008A517000840
:1000B0003D170008A517000800000000A51700085C
:1000C000A51700080000000000000000A5170008A8
:1000D00000000000A5170008A51700080000000098
:1000E000A5170008A5170008A517000800000000C4
:1000F0000000000000000000000000000000000000
:0C01000000000000000000005FF808F1A3
:10010C0010B5054C237833B9044B13B10448AFF345
:10011C0000800123237010BD60000020000000004F
:10012C00FC2D000808B5034B1BB103490348AFF382
:10013C00008008BD0000000064000020FC2D0008B9
:10014C0080B483B000AF7860094A7B6852F82330E2
:10015C00012B06D1064A7B68002142F823100123AB
:10016C0000E0002318460C37BD4680BC704700BF2A
:10017C007C00002080B483B000AF7860044A7B68B8
:10018C0052F8233018460C37BD4680BC704700BF70
:10019C008C00002080B483B000AF00237B6007E0AC
:1001AC00084A7B68002142F823107B6801337B608E
:1001BC007B68032BF4DD00BF00BF0C37BD4680BC51
:1001CC00704700BF8C00002080B483B000AF786013
:1001DC00094A7B68012142F82310084A7B6852F8CF
:1001EC0023305A1C05497B6841F8232000BF0C378B
:1001FC00BD4680BC704700BF7C0000208C000020F6
:10020C0080B582B000AF00237B6063E0354A7B6829
:10021C0052F8232034497B6841F82320334A7B6809
:10022C0052F823202F497B6841F82320304A7B6801
:10023C0052F823309BB219462E4801F099FD034623
:10024C0019462A4A7B6842F82310264A7B6852F8E2
:10025C00232026497B6851F823309A4237D1214A12
:10026C007B6852F8232020497B6851F823309A424E
:10027C002DD11D4A7B6852F823201F497B6851F809
:10028C0023309A4215D0184A7B6852F823201A4919
:10029C007B6841F82320184A7B6852F82330002BE6
:1002AC0015D1164B4FF4FA721A607868FFF78CFF71
:1002BC000DE0124B1B68013B104A13600F4B1B687F
:1002CC00002B04D10C4A7B68012142F823107B6877
:1002DC0001337B607B68032B98DD00BF00BF0837C0
:1002EC00BD4680BD20000020300000201000002002
:1002FC0000000020000801404000002050000020B9
:10030C0080B500AF974B1B68012B40F0B681964B24
:10031C001B68032B6BD801A252F823F03903000899
:10032C004703000883030008BF0300088E4B01221B
:10033C001A60642000F0FCFF60E08C4B1B68012B02
:10034C0057D100F089FC8A4B1B688A4A1360884B92
:10035C001B68013B864A1360854B1B68002B06D13A
:10036C00854B1B68824A13607F4B02221A60642003
:10037C0000F0DEFF3DE07D4B1B68012B3BD100F014
:10038C0097FC7E4B1B687B4A13607C4B1B68013BC4
:10039C007A4A1360794B1B68002B06D1784B1B688B
:1003AC00764A1360704B03221A60642000F0C0FF81
:1003BC0021E06E4B1B68012B1FD100F063FC714BCD
:1003CC001B686C4A13606F4B1B68013B6D4A1360D2
:1003DC006C4B1B68002B06D16B4B1B68694A136076
:1003EC00614B01221A60642000F0A2FF05E000BFFF
:1003FC0004E000BF02E000BF00E000BF634B1B68DD
:10040C00032B6CD801A252F823F000BF290400087A
:10041C003704000873040008AF0400085B4B022289
:10042C001A60642000F098FF60E0594B1B68012BA8
:10043C0057D100F053FC574B1B684E4A5360554B39
:10044C001B68013B534A1360524B1B68002B06D1AF
:10045C00494B1B684F4A13604C4B02221A606420B4
:10046C0000F07AFF3DE04A4B1B68012B3BD100F0BA
:10047C0061FC494B1B683F4A5360474B1B68013B6F
:10048C00454A1360444B1B68002B06D13C4B1B6840
:10049C00414A13603D4B03221A60642000F05CFF5C
:1004AC0021E03B4B1B68012B1FD100F02DFC3B4B7B
:1004BC001B68304A5360394B1B68013B374A136049
:1004CC00364B1B68002B06D12F4B1B68334A13602D
:1004DC002E4B01221A60642000F03EFF05E000BFA5
:1004EC0004E000BF02E000BF00E000BF2C4B1B6823
:1004FC00022B20D0022B31DC002B02D0012B07D099
:10050C002CE0274B01221A60642000F039FF4CE0EC
:10051C00244B1B68012B23D1164B1B68154A5268C0
:10052C001146184600F060FD1D4B02221A60322065
:10053C0000F026FF14E01B4B1B68012B34D10D4B34
:10054C001B680C4A52681146184600F089FD144B82
:10055C0001221A60322000F013FF25E000BF24E0D6
:10056C0000BF22E0A4000020A8000020040100200D
:10057C00E80000209C000020DC000020EC000020A3
:10058C00E0000020F0000020E4000020AC0000207F
:10059C000C010020F4000020F8000020FC000020DA
:1005AC00B00000201401002000BF3A4B1B68042B44
:1005BC0065D801A252F823F0D90500088B06000873
:1005CC000706000835060008630600080020FFF740
:1005DC00B7FD0346012B54D10020FFF7CBFD03469A
:1005EC005A4203F0030302F0030258BF5342012B9B
:1005FC0047D1294B02221A6043E00020FFF7A0FDEF
:10060C000346012B3FD10020FFF7B4FD03465A42AD
:10061C0003F0030302F0030258BF5342022B32D102
:10062C001D4B03221A602EE00020FFF789FD0346C4
:10063C00012B2AD10020FFF79DFD03465A4203F0FF
:10064C00030302F0030258BF5342032B1DD1124B7C
:10065C0004221A6019E00020FFF772FD0346012BFB
:10066C0015D10020FFF786FD034603F00303002B92
:10067C000DD1094B01221A6009E000BF08E000BF50
:10068C0006E000BF04E000BF02E000BF00E000BFD6
:10069C0000BF80BDB4000020A400002080B500AFD6
:1006AC00A74B1B68022B40F0B380A64B1B68002B9A
:1006BC0002D0012B07D010E0A24B01221A600120BE
:1006CC0000F072FE09E0A04B1B68012B04D100F076
:1006DC0047FB192000F068FE00BF9C4B1B68022BE7
:1006EC0020D0022B31DC002B02D0012B07D02CE0C8
:1006FC00964B01221A60012000F06AFE2AE0944B0E
:10070C001B68012B23D18E4B1B68924A1268114631
:10071C00184600F069FC8D4B02221A60192000F07B
:10072C0057FE14E08A4B1B68012B12D1844B1B68BB
:10073C00884A12681146184600F092FC834B01223D
:10074C001A60192000F044FE03E000BF02E000BF75
:10075C0000E000BF804B1B68032B38D0032B3CDC24
:10076C00002B02D0022B0FD037E00120FFF7E8FC62
:10077C000346012B33D1784B02221A60754B1B6850
:10078C000133744A13602AE00120FFF7D9FC0346B9
:10079C00012B12D16F4B1B68632B02DD6D4B632257
:1007AC001A606C4B1B68002B02DC6A4B01221A602E
:1007BC00684B1B680133674A13600320FFF7C0FCCA
:1007CC000346012B0DD1644B03221A6009E05C4BEC
:1007DC0001221A6000F0CAF904E000BF02E000BF79
:1007EC0000E000BF0020FFF7ABFC0346012B0FD14C
:1007FC000020FFF7BFFC03465A4203F0030302F04C
:10080C00030258BF5342022B02D14D4B03221A60F4
:10081C004B4B1B68032B40F0CE80504B1B68002BBE
:10082C0002D0012B07D010E04C4B01221A600120A2
:10083C0000F0E2FD09E04A4B1B68012B04D100F0EB
:10084C00B1FA192000F0D8FD00BF464B1B68022BF3
:10085C0020D0022B31DC002B02D0012B07D02CE056
:10086C00404B01221A60012000F0DAFD2AE03E4BD9
:10087C001B68012B23D1324B1B683C4A1268114672
:10088C00184600F0B1FB374B02221A60192000F019
:10089C00C7FD14E0344B1B68012B12D1284B1B688D
:1008AC00324A12681146184600F0DAFB2D4B012231
:1008BC001A60192000F0B4FD03E000BF02E000BF95
:1008CC0000E000BF2A4B1B68032B53D0032B57DCD3
:1008DC00002B02D0022B0FD052E00120FFF730FC8E
:1008EC000346012B4ED1224B02221A601F4B1B6870
:1008FC0001331E4A136045E00120FFF721FC03463B
:10090C00012B12D1194B1B68632B02DD174B632291
:10091C001A60164B1B68002B02DC144B01221A6068
:10092C00124B1B680133114A13600320FFF708FCBC
:10093C000346012B28D10E4B03221A6024E000BF82
:10094C00A4000020B80000201C010020BC000020E6
:10095C0024010020DC000020C0000020C400002086
:10096C002C010020C800002034010020E0000020F1
:10097C00CC0000206B4B01221A6000F0F7F804E069
:10098C0000BF02E000BF00E000BF0020FFF7D8FB73
:10099C000346012B0FD10020FFF7ECFB03465A4214
:1009AC0003F0030302F0030258BF5342032B02D19E
:1009BC005C4B04221A605B4B1B68042B40F0B0802C
:1009CC00594B1B68002B02D0012B07D010E0564B63
:1009DC0001221A60012000F037FD09E0534B1B681F
:1009EC00012B04D100F000FA192000F02DFD00BFFE
:1009FC004F4B1B68022B20D0022B31DC002B02D07A
:100A0C00012B07D02CE04A4B01221A60012000F088
:100A1C002FFD2AE0474B1B68012B23D1414B1B6850
:100A2C00454A12681146184600F0DEFA404B022285
:100A3C001A60192000F01CFD14E03E4B1B68012BC2
:100A4C0012D1384B1B683C4A12681146184600F00C
:100A5C0007FB374B01221A60192000F009FD03E057
:100A6C0000BF02E000BF00E000BF344B1B68032B4B
:100A7C0038D0032B3CDC002B02D0022B0FD037E0FC
:100A8C000120FFF75DFB0346012B33D12B4B0222D8
:100A9C001A60294B1B680133274A13602AE0012096
:100AAC00FFF74EFB0346012B12D1234B1B68632B24
:100ABC0002DD214B63221A601F4B1B68002B02DCEA
:100ACC001D4B01221A601C4B1B6801331A4A136020
:100ADC000320FFF735FB0346012B0DD1174B0322E7
:100AEC001A6009E00F4B01221A6000F03FF804E095
:100AFC0000BF02E000BF00E000BF0020FFF720FBBA
:100B0C000346012B0CD10020FFF734FB034603F006
:100B1C000303002B04D1034B01221A6000F026F8CA
:100B2C0000BF80BDA4000020D00000203C010020AC
:100B3C00D400002044010020E4000020D800002054
:100B4C0080B400AF064B41221A60064B58221A6043
:100B5C00054B03221A6000BFBD4680BC704700BF26
:100B6C00DC000020E0000020E400002080B500AF95
:100B7C00224B01221A60224B00221A60214B0022C8
:100B8C001A60214B00221A60204B00221A60204B65
:100B9C0000221A601F4B00221A601F4B00221A60A1
:100BAC001E4B00221A601E4B00221A601D4B0022A5
:100BBC001A601D4B00221A601C4B00221A601C4B41
:100BCC0000221A601B4B1B681B4A13601B4B1B68D3
:100BDC001B4A13601B4B1B681B4A1360154B1B688D
:100BEC001A4A1360154B1B68194A1360154B1B6886
:100BFC00184A1360FFF7CEFA00BF80BDA400002096
:100C0C00A8000020AC000020B0000020B4000020A0
:100C1C00B8000020BC000020C0000020C400002050
:100C2C00C8000020CC000020D0000020D400002000
:100C3C00D8000020DC000020E8000020E0000020AC
:100C4C00EC000020E4000020F0000020F400002064
:100C5C00F8000020FC00002080B500AF002220210D
:100C6C00074801F09CF801228021054801F097F813
:100C7C0001224021024801F092F800BF80BD00BF64
:100C8C000008014080B500AF01222021074801F087
:100C9C0086F801228021054801F081F800224021CC
:100CAC00024801F07CF800BF80BD00BF0008014085
:100CBC0080B500AF01222021074801F070F8002216
:100CCC008021054801F06BF801224021024801F017
:100CDC0066F800BF80BD00BF0008014080B500AFC2
:100CEC0000220421074801F05AF80122102105487E
:100CFC0001F055F801220821024801F050F800BF1C
:100D0C0080BD00BF0008014080B500AF0122042166
:100D1C00074801F044F801221021054801F03FF882
:100D2C0000220821024801F03AF800BF80BD00BF44
:100D3C000008014080B500AF01220421074801F0F2
:100D4C002EF800221021054801F029F80122082173
:100D5C00024801F024F800BF80BD00BF000801402C
:100D6C0080B500AF20210E4801F031F804210C4869
:100D7C0001F02DF801228021094801F010F8012220
:100D8C001021074801F00BF801224021044801F022
:100D9C0006F801220821024801F001F800BF80BDCD
:100DAC000008014080B500AF80210E4801F00FF81B
:100DBC0010210C4801F00BF801222021094800F009
:100DCC00EEFF01220421074800F0E9FF0122402137
:100DDC00044800F0E4FF01220821024800F0DFFF84
:100DEC0000BF80BD0008014080B500AF40210E4817
:100DFC0000F0EDFF08210C4800F0E9FF01228021F2
:100E0C00094800F0CCFF01221021074800F0C7FF71
:100E1C0001222021044800F0C2FF012204210248D3
:100E2C0000F0BDFF00BF80BD0008014080B582B05E
:100E3C0000AF7860314A7B6813441B7803F00103E0
:100E4C00DBB21A4601212E4800F0A9FF2B4A7B6821
:100E5C0013441B785B08DBB203F00103DBB21A46C8
:100E6C000221274800F09BFF244A7B6813441B781F
:100E7C009B08DBB203F00103DBB21A4604212048C5
:100E8C0000F08DFF1D4A7B6813441B78DB08DBB236
:100E9C0003F00103DBB21A460821194800F07FFF6A
:100EAC00164A7B6813441B781B09DBB203F0010361
:100EBC00DBB21A461021124800F071FF0F4A7B6812
:100ECC0013441B785B09DBB203F00103DBB21A4657
:100EDC0020210B4800F063FF084A7B6813441B7801
:100EEC009B09DBB203F00103DBB21A464021044834
:100EFC0000F055FF00BF0837BD4680BD242E00080A
:100F0C00000C014080B582B000AF7860344A7B6839
:100F1C0013441B7803F00103DBB21A4680213148DD
:100F2C0000F03DFF2E4A7B6813441B785B08DBB254
:100F3C0003F00103DBB21A464FF48071294800F02C
:100F4C002EFF274A7B6813441B789B08DBB203F007
:100F5C000103DBB21A464FF40071224800F01FFF68
:100F6C001F4A7B6813441B78DB08DBB203F00103D8
:100F7C00DBB21A464FF480611A4800F010FF184A91
:100F8C007B6813441B781B09DBB203F00103DBB253
:100F9C001A464FF40061134800F001FF104A7B68B9
:100FAC0013441B785B09DBB203F00103DBB21A4676
:100FBC004FF480510B4800F0F2FE094A7B68134451
:100FCC001B789B09DBB203F00103DBB21A464FF42A
:100FDC000051044800F0E3FE00BF0837BD4680BD59
:100FEC00242E0008000C014080B582B000AF786060
:100FFC00396000224FF48071164800F0D0FE0122B7
:10100C004FF40071134800F0CAFE7B68124A82FB51
:10101C0003129210DB17D31A1846FFF707FF0022B2
:10102C004FF400410D4800F0BAFE01224FF480410C
:10103C000A4800F0B4FE3B68074A82FB0312921088
:10104C00DB17D31A1846FFF75DFF00BF0837BD4604
:10105C0080BD00BF0008014067666666000C014059
:10106C0080B582B000AF7860396001224FF4807196
:10107C001B4800F094FE00224FF40071184800F059
:10108C008EFE7A68174B83FB02139910D317C91A7B
:10109C000B469B000B445B00D11A0846FFF7C6FEBB
:1010AC0001224FF40041104800F079FE00224FF469
:1010BC0080410D4800F073FE3A680A4B83FB021323
:1010CC009910D317C91A0B469B000B445B00D11A1D
:1010DC000846FFF717FF00BF0837BD4680BD00BFAD
:1010EC000008014067666666000C014080B500AFE1
:1010FC0000F054FB00F012F800F04CF800F096F8F9
:10110C00054801F0B5FAFFF71BFDFFF72FFDFFF7C0
:10111C00F7F8FFF7C3FAFAE75001002080B590B05A
:10112C0000AF07F1180328220021184601F058FEE1
:10113C003B1D00221A605A609A60DA601A61022321
:10114C00BB610123BB621023FB6200237B6307F1AD
:10115C001803184600F054FE0346002B01D000F093
:10116C00E1F80F237B600023BB600023FB600023AE
:10117C003B6100237B613B1D0021184601F0C0F848
:10118C000346002B01D000F0CDF800BF4037BD4620
:10119C0080BD000080B586B000AF07F108030022C7
:1011AC001A605A609A60DA603B4600221A605A60F4
:1011BC001D4B4FF080421A601B4B41F63F725A6038
:1011CC00194B00229A60184B0922DA60164B002248
:1011DC001A61154B00229A61134801F0F9F9034684
:1011EC00002B01D000F09EF84FF48053BB6007F148
:1011FC00080319460C4801F08FFB0346002B01D065
:10120C0000F090F800233B6000237B603B461946BE
:10121C00054801F057FD0346002B01D000F082F881
:10122C0000BF1837BD4680BD5001002080B586B088
:10123C0000AF07F1080300221A605A609A60DA6066
:10124C002F4B9B692E4A43F0040393612C4B9B69F3
:10125C0003F004037B607B68294B9B69284A43F0AD
:10126C0008039361264B9B6903F008033B603B68C2
:10127C0000224FF47F71234800F091FD00224FF6BD
:10128C00FF71214800F08BFD4FF47F73BB6001238D
:10129C00FB6000233B6102237B6107F108031946C5
:1012AC00184800F0EBFB4FF6FF73BB600123FB60AB
:1012BC0000233B6102237B6107F1080319461248A6
:1012CC0000F0DCFB4FF4E053BB600023FB60012318
:1012DC003B6107F1080319460A4800F0CFFB4FF4B5
:1012EC000053BB600023FB6000233B6107F1080344
:1012FC001946044800F0C2FB00BF1837BD4680BD3C
:10130C000010024000080140000C014080B582B082
:10131C0000AF786000F0C0F8FEF772FF00BF08372E
:10132C00BD4680BD80B400AF72B600BFFEE70000C2
:10133C0080B483B000AF7860054A7B681360054BBE
:10134C0000221A6000BF0C37BD4680BC704700BF3E
:10135C00000100200401002080B483B000AF78604D
:10136C00054A7B681360054B00221A6000BF0C37DE
:10137C00BD4680BC704700BF080100200C01002056
:10138C0080B483B000AF7860054A7B681360054B6E
:10139C0000221A6000BF0C37BD4680BC704700BFEE
:1013AC00100100201401002080B483B000AF7860DD
:1013BC00054A7B681360054B00221A6000BF0C378E
:1013CC00BD4680BC704700BF180100201C010020E6
:1013DC0080B483B000AF7860054A7B681360054B1E
:1013EC0000221A6000BF0C37BD4680BC704700BF9E
:1013FC00200100202401002080B483B000AF78606D
:10140C00054A7B681360054B00221A6000BF0C373D
:10141C00BD4680BC704700BF280100202C01002075
:10142C0080B483B000AF7860054A7B681360054BCD
:10143C0000221A6000BF0C37BD4680BC704700BF4D
:10144C00300100203401002080B483B000AF7860FC
:10145C00054A7B681360054B00221A6000BF0C37ED
:10146C00BD4680BC704700BF380100203C01002005
:10147C0080B483B000AF7860054A7B681360054B7D
:10148C0000221A6000BF0C37BD4680BC704700BFFD
:10149C00400100204401002080B400AF514B1B6878
:1014AC00002B0BDD4F4B1B68013B4E4A13604D4B21
:1014BC001B68002B02D14C4B01221A604B4B1B6852
:1014CC00002B0BDD494B1B68013B484A1360474B13
:1014DC001B68002B02D1464B01221A60454B1B683E
:1014EC00002B0BDD434B1B68013B424A1360414B05
:1014FC001B68002B02D1404B01221A603F4B1B682A
:10150C00002B0BDD3D4B1B68013B3C4A13603B4BF6
:10151C001B68002B02D13A4B01221A60394B1B6815
:10152C00002B0BDD374B1B68013B364A1360354BE8
:10153C001B68002B02D1344B01221A60334B1B6801
:10154C00002B0BDD314B1B68013B304A13602F4BDA
:10155C001B68002B02D12E4B01221A602D4B1B68ED
:10156C00002B0BDD2B4B1B68013B2A4A1360294BCC
:10157C001B68002B02D1284B01221A60274B1B68D9
:10158C00002B0BDD254B1B68013B244A1360234BBE
:10159C001B68002B02D1224B01221A60214B1B68C5
:1015AC00002B0BDD1F4B1B68013B1E4A13601D4BB0
:1015BC001B68002B02D11C4B01221A601B4B1B68B1
:1015CC00002B0BDD194B1B68013B184A1360174BA2
:1015DC001B68002B02D1164B01221A6000BFBD46BE
:1015EC0080BC70470001002004010020080100208D
:1015FC000C01002010010020140100201801002013
:10160C001C010020200100202401002028010020C2
:10161C002C01002030010020340100203801002072
:10162C003C01002040010020440100204801002022
:10163C004C01002080B485B000AF154B9B69144A57
:10164C0043F001039361124B9B6903F00103BB60F0
:10165C00BB680F4BDB690E4A43F08053D3610C4BD4
:10166C00DB6903F080537B607B680A4B5B68FB6033
:10167C00FB6823F0E063FB60FB6843F08063FB6076
:10168C00044AFB68536000BF1437BD4680BC7047EA
:10169C00001002400000014080B584B000AF7860BB
:1016AC007B681B68B3F1804F13D10C4BDB690B4A81
:1016BC0043F00103D361094BDB6903F00103FB60C9
:1016CC00FB68002200211C2000F0A1F91C2000F076
:1016DC00BAF900BF1037BD4680BD00BF00100240F4
:1016EC0080B400AFFEE780B400AFFEE780B400AF7B
:1016FC00FEE780B400AFFEE780B400AFFEE780B435
:10170C0000AF00BFBD4680BC704780B400AF00BFC7
:10171C00BD4680BC704780B400AF00BFBD4680BCE6
:10172C00704780B500AF00F07FF800BF80BD0000AF
:10173C0080B500AF024800F0E7FF00BF80BD00BFDE
:10174C005001002080B400AF00BFBD4680BC704784
:10175C000C480D490D4A002302E0D458C450043300
:10176C00C4188C42F9D30A4A0A4C002301E01360D6
:10177C000432A242FBD3FFF7E5FF01F00DFBFFF7AC
:10178C00B5FC70470000002060000020482E0008C7
:10179C00600000209C010020FEE7000080B500AF37
:1017AC00084B1B68074A43F010031360032000F03A
:1017BC0023F90F2000F008F8FFF73CFF0023184630
:1017CC0080BD00BF0020024080B582B000AF7860C1
:1017DC00124B1A68124B1B7819464FF47A73B3FBF1
:1017EC00F1F3B2FBF3F3184600F03BF90346002B80
:1017FC0001D001230EE07B680F2B0AD800227968F8
:10180C004FF0FF3000F003F9064A7B6813600023A9
:10181C0000E0012318460837BD4680BD5400002067
:10182C005C0000205800002080B400AF054B1B78F2
:10183C001A46054B1B681344034A136000BFBD4690
:10184C0080BC70475C0000209801002080B400AF81
:10185C00024B1B681846BD4680BC7047980100209F
:10186C0080B485B000AF78607B6803F00703FB6041
:10187C000C4BDB68BB60BA684FF6FF031340BB60D0
:10188C00FB681A02BB68134343F0BF6343F4003395
:10189C00BB60044ABB68D36000BF1437BD4680BC34
:1018AC00704700BF00ED00E080B400AF044BDB6874
:1018BC001B0A03F007031846BD4680BC704700BFE7
:1018CC0000ED00E080B483B000AF0346FB7197F9E4
:1018DC000730002B0BDBFB7903F01F02064997F94D
:1018EC0007305B09012000FA02F241F8232000BF07
:1018FC000C37BD4680BC704700E100E080B483B07B
:10190C0000AF03463960FB7197F90730002B0ADBF7
:10191C003B68DAB20C4997F907301201D2B20B448A
:10192C0083F800230AE03B68DAB20849FB7903F03C
:10193C000F03043B1201D2B20B441A7600BF0C37D2
:10194C00BD4680BC704700BF00E100E000ED00E048
:10195C0080B489B000AFF860B9607A60FB6803F0BE
:10196C000703FB61FB69C3F10703042B28BF0423A6
:10197C00BB61FB690433062B02D9FB69033B00E016
:10198C0000237B614FF0FF32BB6902FA03F3DA43A9
:10199C00BB681A407B699A404FF0FF317B6901FAB2
:1019AC0003F3D9437B680B40134318462437BD46D9
:1019BC0080BC704780B582B000AF78607B68013B1B
:1019CC00B3F1807F01D301230FE00A4A7B68013B0E
:1019DC0053600F214FF0FF30FFF790FF054B0022B3
:1019EC009A60044B07221A60002318460837BD463C
:1019FC0080BD00BF10E000E080B582B000AF786021
:101A0C007868FFF72DFF00BF0837BD4680BD80B555
:101A1C0086B000AF0346B9607A60FB7300237B612C
:101A2C00FFF742FF78617A68B9687869FFF790FF31
:101A3C00024697F90F3011461846FFF75FFF00BFBB
:101A4C001837BD4680BD80B582B000AF0346FB7130
:101A5C0097F907301846FFF735FF00BF0837BD462A
:101A6C0080BD80B582B000AF78607868FFF7A2FFC8
:101A7C00034618460837BD4680BD000080B48BB0C5
:101A8C0000AF7860396000237B6200233B6248E141
:101A9C0001227B6A02FA03F3FB613B681B68FA695B
:101AAC001340BB61BA69FB699A4240F037813B68CD
:101ABC005B68A34A93425ED0A14A934275D8A14A6F
:101ACC00934258D09F4A93426FD89F4A934252D028
:101ADC009D4A934269D89D4A93424CD09B4A93426B
:101AEC0063D89B4A934246D0994A93425DD8122BB5
:101AFC002AD8122B59D801A252F823F0831B0008C4
:101B0C005D1B00086F1B0008B11B0008B71B000809
:101B1C00B71B0008B71B0008B71B0008B71B000851
:101B2C00B71B0008B71B0008B71B0008B71B000841
:101B3C00B71B0008B71B0008B71B0008B71B000831
:101B4C00651B0008791B0008824A934213D02CE0D5
:101B5C003B68DB683B6229E03B68DB6804333B6233
:101B6C0024E03B68DB6808333B621FE03B68DB68C2
:101B7C000C333B621AE03B689B68002B02D10423B8
:101B8C003B6213E03B689B68012B05D108233B6249
:101B9C007B68FA691A6109E008233B627B68FA6981
:101BAC005A6103E000233B6200E000BFBB69FF2BDE
:101BBC0001D87B6801E07B6804337B61BB69FF2B38
:101BCC0002D87B6A9B0002E07B6A083B9B003B616E
:101BDC007B691A680F213B6901FA03F3DB431A4056
:101BEC00396A3B6901FA03F31A437B691A603B6853
:101BFC005B6803F08053002B00F09080564B9B6980
:101C0C00554A43F001039361534B9B6903F0010365
:101C1C00BB60BB68514A7B6A9B08023352F8233085
:101C2C00FB607B6A03F003039B000F2202FA03F3B1
:101C3C00DB43FA681340FB607B68494A93420DD042
:101C4C007B68484A934207D07B68474A934201D14C
:101C5C00022304E0032302E0012300E000237A6A5C
:101C6C0002F0030292009340FA681343FB603B4975
:101C7C007B6A9B080233FA6841F823203B685B6857
:101C8C0003F48033002B06D0384B1A683749BB69F4
:101C9C0013430B6006E0354B1A68BB69DB433349D1
:101CAC0013400B603B685B6803F40033002B06D0D9
:101CBC002E4B5A682D49BB6913434B6006E02B4BE6
:101CCC005A68BB69DB43294913404B603B685B682E
:101CDC0003F48013002B06D0244B9A682349BB696C
:101CEC0013438B6006E0214B9A68BB69DB431F49A9
:101CFC0013408B603B685B6803F40013002B06D029
:101D0C001A4BDA681949BB691343CB6006E0174BD1
:101D1C00DA68BB69DB4315491340CB607B6A01333E
:101D2C007B623B681A687B6A22FA03F3002B7FF410
:101D3C00AFAE00BF00BF2C37BD4680BC704700BFA4
:101D4C0000003210000031100000221000002110A1
:101D5C0000001210000011100010024000000140A1
:101D6C0000080140000C014000100140000401403B
:101D7C0080B485B000AF78600B467B807B689A6836
:101D8C007B881340002B02D00123FB7301E000235E
:101D9C00FB73FB7B18461437BD4680BC704780B480
:101DAC0083B000AF78600B467B8013467B707B78EA
:101DBC00002B03D07A887B681A6103E07B881A04B5
:101DCC007B681A6100BF0C37BD4680BC704780B47D
:101DDC0085B000AF78600B467B807B68DB68FB606E
:101DEC007A88FB6813401A04FB68D9437B880B4044
:101DFC001A437B681A6100BF1437BD4680BC70471C
:101E0C0080B586B000AF78607B68002B01D10123D0
:101E1C006CE27B681B6803F00103002B00F08780E9
:101E2C00924B5B6803F00C03042B0CD08F4B5B685C
:101E3C0003F00C03082B12D18C4B5B6803F480333A
:101E4C00B3F5803F0BD1894B1B6803F40033002B97
:101E5C006CD07B685B68002B68D1012346E27B6801
:101E6C005B68B3F5803F06D1804B1B687F4A43F417
:101E7C00803313602EE07B685B68002B0CD17B4BAE
:101E8C001B687A4A23F480331360784B1B68774ABB
:101E9C0023F4802313601DE07B685B68B3F5A02FEF
:101EAC000CD1724B1B68714A43F4802313606F4B47
:101EBC001B686E4A43F4803313600BE06B4B1B685A
:101ECC006A4A23F480331360684B1B68674A23F417
:101EDC00802313607B685B68002B13D0FFF7B6FC84
:101EEC00386108E0FFF7B2FC02463B69D31A642B59
:101EFC0001D90323FAE15D4B1B6803F40033002B7B
:101F0C00F0D014E0FFF7A2FC386108E0FFF79EFC6C
:101F1C0002463B69D31A642B01D90323E6E1534BE8
:101F2C001B6803F40033002BF0D100E000BF7B688A
:101F3C001B6803F00203002B63D04C4B5B6803F06F
:101F4C000C03002B0BD0494B5B6803F00C03082BE4
:101F5C001CD1464B5B6803F48033002B16D1434BEA
:101F6C001B6803F00203002B05D07B681B69012B57
:101F7C0001D00123BAE13D4B1B6823F0F8027B68CA
:101F8C005B69DB00394913430B603AE07B681B69E2
:101F9C00002B20D0364B01221A60FFF757FC38611A
:101FAC0008E0FFF753FC02463B69D31A022B01D918
:101FBC0003239BE12D4B1B6803F00203002BF0D095
:101FCC002A4B1B6823F0F8027B685B69DB0027490E
:101FDC0013430B6015E0264B00221A60FFF736FC0A
:101FEC00386108E0FFF732FC02463B69D31A022B3A
:101FFC0001D903237AE11D4B1B6803F00203002B6C
:10200C00F0D17B681B6803F00803002B3AD07B6887
:10201C009B69002B19D0174B01221A60FFF716FC95
:10202C00386108E0FFF712FC02463B69D31A022B19
:10203C0001D903235AE10D4B5B6A03F00203002B19
:10204C00F0D0012000F0A6FA1CE00A4B00221A6026
:10205C00FFF7FCFB38610FE0FFF7F8FB02463B692A
:10206C00D31A022B08D9032340E100BF0010024011
:10207C0000004242800442429E4B5B6A03F0020322
:10208C00002BE9D17B681B6803F00403002B00F0E4
:10209C00A6800023FB75974BDB6903F08053002B64
:1020AC000DD1944BDB69934A43F08053D361914B30
:1020BC00DB6903F08053BB60BB680123FB758E4B5F
:1020CC001B6803F48073002B18D18B4B1B688A4A56
:1020DC0043F480731360FFF7B9FB386108E0FFF736
:1020EC00B5FB02463B69D31A642B01D90323FDE0EF
:1020FC00814B1B6803F48073002BF0D07B68DB688A
:10210C00012B06D17B4B1B6A7A4A43F00103136205
:10211C002DE07B68DB68002B0CD1764B1B6A754A73
:10212C0023F001031362734B1B6A724A23F00403FE
:10213C0013621CE07B68DB68052B0CD16D4B1B6AB2
:10214C006C4A43F0040313626A4B1B6A694A43F0FE
:10215C00010313620BE0674B1B6A664A23F0010311
:10216C001362644B1B6A634A23F0040313627B689B
:10217C00DB68002B15D0FFF769FB38610AE0FFF72D
:10218C0065FB02463B69D31A41F28832934201D96E
:10219C000323ABE0574B1B6A03F00203002BEED07A
:1021AC0014E0FFF753FB38610AE0FFF74FFB0246E0
:1021BC003B69D31A41F28832934201D9032395E04B
:1021CC004C4B1B6A03F00203002BEED1FB7D012B61
:1021DC0005D1484BDB69474A23F08053D3617B68B8
:1021EC00DB69002B00F08180424B5B6803F00C0331
:1021FC00082B61D07B68DB69022B46D13F4B002258
:10220C001A60FFF723FB386108E0FFF71FFB02465B
:10221C003B69D31A022B01D9032367E0354B1B68AA
:10222C0003F00073002BF0D17B681B6AB3F5803F81
:10223C0008D1304B5B6823F400327B689B682D49D6
:10224C0013434B602B4B5B6823F474127B68196A45
:10225C007B685B6A0B43274913434B60274B012276
:10226C001A60FFF7F3FA386108E0FFF7EFFA02465D
:10227C003B69D31A022B01D9032337E01D4B1B6892
:10228C0003F00073002BF0D02FE01C4B00221A60DF
:10229C00FFF7DCFA386108E0FFF7D8FA02463B6931
:1022AC00D31A022B01D9032320E0124B1B6803F035
:1022BC000073002BF0D118E07B68DB69012B01D196
:1022CC00012313E00B4B5B68FB60FB6803F480326B
:1022DC007B681B6A9A4206D1FB6803F470127B6818
:1022EC005B6A9A4201D0012300E00023184618379C
:1022FC00BD4680BD001002400070004060004242AC
:10230C0080B584B000AF786039607B68002B01D158
:10231C000123D0E06A4B1B6803F007033A689A422A
:10232C0010D9674B1B6823F0070265493B681343C0
:10233C000B60634B1B6803F007033A689A4201D0A9
:10234C000123B8E07B681B6803F00203002B20D04C
:10235C007B681B6803F00403002B05D0594B5B68AA
:10236C00584A43F4E06353607B681B6803F008032E
:10237C00002B05D0534B5B68524A43F460535360B7
:10238C00504B5B6823F0F0027B689B684D4913430C
:10239C004B607B681B6803F00103002B40D07B680B
:1023AC005B68012B07D1474B1B6803F40033002BF0
:1023BC0015D101237FE07B685B68022B07D1414B71
:1023CC001B6803F00073002B09D1012373E03D4B14
:1023DC001B6803F00203002B01D101236BE0394B86
:1023EC005B6823F003027B685B68364913434B60E0
:1023FC00FFF72CFAF8600AE0FFF728FA0246FB68B0
:10240C00D31A41F28832934201D9032353E02D4B66
:10241C005B6803F00C027B685B689B009A42EBD113
:10242C00274B1B6803F007033A689A4210D2244BDF
:10243C001B6823F0070222493B6813430B60204BB7
:10244C001B6803F007033A689A4201D0012332E07B
:10245C007B681B6803F00403002B08D0194B5B68E6
:10246C0023F4E0627B68DB68164913434B607B689E
:10247C001B6803F00803002B09D0124B5B6823F494
:10248C0060527B681B69DB000E4913434B6000F004
:10249C0021F802460B4B5B681B0903F00F030A493A
:1024AC00CB5C22FA03F3094A1360094B1B681846EC
:1024BC00FFF78AF9002318461037BD4680BD00BFD0
:1024CC000020024000100240302E00085400002072
:1024DC005800002090B48AB000AF2A4B3C1D0FCBA3
:1024EC0084E80F0040F201233B800023FB610023B2
:1024FC00BB6100237B6200237B6100233B62224B88
:10250C005B68FB61FB6903F00C03042B02D0082B06
:10251C0003D02DE01D4B3B622DE0FB699B0C03F0BF
:10252C000F0307F12802134413F8243C7B61FB6969
:10253C0003F48033002B13D0134B5B685B0C03F05C
:10254C00010307F12802134413F8283CBB617B6993
:10255C000E4A02FB03F2BB69B2FBF3F37B6204E0AD
:10256C007B690B4A02FB03F37B627B6A3B6202E0F2
:10257C00064B3B6200BF3B6A18462837BD4690BCF1
:10258C00704700BF142E00080010024000127A00A1
:10259C0000093D0080B485B000AF78600A4B1B6821
:1025AC000A4AA2FB03235B0A7A6802FB03F3FB6073
:1025BC0000BFFB685A1EFA60002BF9D100BF00BFA8
:1025CC001437BD4680BC704754000020D34D6210B8
:1025DC0080B582B000AF78607B68002B01D10123FD
:1025EC0041E07B6893F83D30DBB2002B06D17B6871
:1025FC00002283F83C207868FFF74EF87B680222B3
:10260C0083F83D207B681A687B68043319461046B2
:10261C0000F06AFA7B68012283F846207B6801226D
:10262C0083F83E207B68012283F83F207B680122DF
:10263C0083F840207B68012283F841207B680122CB
:10264C0083F842207B68012283F843207B680122B7
:10265C0083F844207B68012283F845207B680122A3
:10266C0083F83D20002318460837BD4680BD000086
:10267C0080B485B000AF78607B6893F83D30DBB2F6
:10268C00012B01D0012335E07B68022283F83D2029
:10269C007B681B68DA687B681B6842F00102DA60B1
:1026AC007B681B68164A934209D07B681B68B3F1A0
:1026BC00804F04D07B681B68124A934211D17B680F
:1026CC001B689B6803F00703FB60FB68062B10D0AC
:1026DC007B681B681A687B681B6842F001021A60F1
:1026EC0007E07B681B681A687B681B6842F0010274
:1026FC001A60002318461437BD4680BC704700BFD3
:10270C00002C01400004004080B582B000AF78601E
:10271C007B681B681B6903F00203022B22D17B68C8
:10272C001B68DB6803F00203022B1BD17B681B6860
:10273C006FF002021A617B6801221A777B681B68B2
:10274C009B6903F00303002B03D0786800F0B1F908
:10275C0005E0786800F0A4F9786800F0B3F97B68BC
:10276C0000221A777B681B681B6903F00403042B97
:10277C0022D17B681B68DB6803F00403042B1BD19C
:10278C007B681B686FF004021A617B6802221A775F
:10279C007B681B689B6903F44073002B03D078683B
:1027AC0000F087F905E0786800F07AF9786800F0B5
:1027BC0089F97B6800221A777B681B681B6903F018
:1027CC000803082B22D17B681B68DB6803F0080325
:1027DC00082B1BD17B681B686FF008021A617B68A1
:1027EC0004221A777B681B68DB6903F00303002B58
:1027FC0003D0786800F05DF905E0786800F050F9D6
:10280C00786800F05FF97B6800221A777B681B6898
:10281C001B6903F01003102B22D17B681B68DB684B
:10282C0003F01003102B1BD17B681B686FF0100298
:10283C001A617B6808221A777B681B68DB6903F4D2
:10284C004073002B03D0786800F033F905E078680A
:10285C0000F026F9786800F035F97B6800221A77C9
:10286C007B681B681B6903F00103012B0ED17B688D
:10287C001B68DB6803F00103012B07D17B681B6825
:10288C006FF001021A617868FEF740FD7B681B68E7
:10289C001B6903F08003802B0ED17B681B68DB68FF
:1028AC0003F08003802B07D17B681B686FF08002DC
:1028BC001A61786800F067FA7B681B681B6903F083
:1028CC004003402B0ED17B681B68DB6803F0400390
:1028DC00402B07D17B681B686FF040021A61786847
:1028EC0000F0F9F87B681B681B6903F02003202BB0
:1028FC000ED17B681B68DB6803F02003202B07D10B
:10290C007B681B686FF020021A61786800F032FA5D
:10291C0000BF0837BD4680BD80B584B000AF78607D
:10292C0039607B6893F83C30012B01D10223B3E072
:10293C007B68012283F83C207B68022283F83D20CF
:10294C007B681B689B68FB60FB6823F07703FB606C
:10295C00FB6823F47F43FB607B681B68FA689A6012
:10296C003B681B68B3F5005F3ED0B3F5005F00F227
:10297C008780B3F5805F00F08580B3F5805F7FD8EA
:10298C00702B1AD0702B7BD8602B50D0602B77D843
:10299C00502B3CD0502B73D8402B58D0402B6FD899
:1029AC00302B64D0302B6BD8202B60D0202B67D8E9
:1029BC00002B5CD0102B5AD062E07B6818683B6807
:1029CC0099683B685A683B68DB6800F05CF97B6887
:1029DC001B689B68FB60FB6843F07703FB607B68BC
:1029EC001B68FA689A604EE07B6818683B689968C7
:1029FC003B685A683B68DB6800F045F97B681B68EC
:102A0C009A687B681B6842F480429A603BE07B6862
:102A1C0018683B6859683B68DB681A4600F0BCF8DC
:102A2C007B681B685021184600F013F92BE07B687B
:102A3C0018683B6859683B68DB681A4600F0DAF89E
:102A4C007B681B686021184600F003F91BE07B686B
:102A5C0018683B6859683B68DB681A4600F09CF8BC
:102A6C007B681B684021184600F0F3F80BE07B688C
:102A7C001A683B681B681946104600F0EAF802E039
:102A8C0000BF00E000BF7B68012283F83D207B681B
:102A9C00002283F83C20002318461037BD4680BD29
:102AAC0080B483B000AF786000BF0C37BD4680BCEB
:102ABC00704780B483B000AF786000BF0C37BD4660
:102ACC0080BC704780B483B000AF786000BF0C3717
:102ADC00BD4680BC704780B483B000AF786000BF47
:102AEC000C37BD4680BC704780B485B000AF7860B1
:102AFC0039607B681B68FB607B68254A934207D072
:102B0C007B68B3F1804F03D07B68224A934208D193
:102B1C00FB6823F07003FB603B685B68FA68134347
:102B2C00FB607B681A4A934207D07B68B3F1804FF5
:102B3C0003D07B68174A934208D1FB6823F4407397
:102B4C00FB603B68DB68FA681343FB60FB6823F0AF
:102B5C0080023B685B691343FB607B68FA681A6010
:102B6C003B689A687B68DA623B681A687B689A6291
:102B7C007B68074A934203D13B681A697B681A63E6
:102B8C007B6801225A6100BF1437BD4680BC704778
:102B9C00002C01400004004080B487B000AFF86006
:102BAC00B9607A60FB681B6A7B61FB681B6A23F067
:102BBC000102FB681A62FB689B693B613B6923F06D
:102BCC00F0033B617B681B013A6913433B617B69F2
:102BDC0023F00A037B617A69BB6813437B61FB6852
:102BEC003A699A61FB687A691A6200BF1C37BD4664
:102BFC0080BC704780B487B000AFF860B9607A6071
:102C0C00FB681B6A23F01002FB681A62FB689B6965
:102C1C007B61FB681B6A3B617B6923F470437B61BE
:102C2C007B681B037A6913437B613B6923F0A00328
:102C3C003B61BB681B013A6913433B61FB687A69D2
:102C4C009A61FB683A691A6200BF1C37BD4680BCAA
:102C5C00704780B485B000AF786039607B689B6842
:102C6C00FB60FB6823F07003FB603A68FB6813435E
:102C7C0043F00703FB607B68FA689A6000BF143767
:102C8C00BD4680BC704780B487B000AFF860B960B7
:102C9C007A603B60FB689B687B617B6923F47F43B4
:102CAC007B613B681A027B681A43BB6813437A69E1
:102CBC0013437B61FB687A699A6000BF1C37BD4681
:102CCC0080BC704780B485B000AF786039607B6899
:102CDC0093F83C30012B01D1022341E07B680122A7
:102CEC0083F83C207B68022283F83D207B681B68BC
:102CFC005B68FB607B681B689B68BB60FB6823F0B0
:102D0C007003FB603B681B68FA681343FB607B68CD
:102D1C001B68FA685A607B681B68144A934209D096
:102D2C007B681B68B3F1804F04D07B681B68104A2A
:102D3C0093420CD1BB6823F08003BB603B685B689B
:102D4C00BA681343BB607B681B68BA689A607B687F
:102D5C00012283F83D207B68002283F83C2000236D
:102D6C0018461437BD4680BC704700BF002C01408C
:102D7C000004004080B483B000AF786000BF0C3713
:102D8C00BD4680BC704780B483B000AF786000BF94
:102D9C000C37BD4680BC704770B500260C4D0D4CF1
:102DAC00641BA410A64209D100F022F800260A4D9B
:102DBC000A4C641BA410A64205D170BD55F8043B07
:102DCC0098470136EEE755F8043B98470136F2E791
:102DDC00402E0008402E0008402E0008442E00080B
:102DEC0003460244934200D1704703F8011BF9E7F4
:102DFC00F8B500BFF8BC08BC9E467047F8B500BFDC
:082E0C00F8BC08BC9E467047AB
:102E140002030405060708090A0B0C0D0E0F101017
:102E240040792430191202780010000000000000DC
:0C2E34000000000001020304060708096A
:042E40003101000854
:042E44000D01000874
:102E4800000400000008000000100000002000003E
:102E58000100000001000000010000000100000066
:102E68000100000001000000010000000100000056
:102E78000100000001000000010000000100000046
:102E88000100000001000000010000000100000036
:102E9800F40100000024F40010000000010000000C
:040000050800175D7B
:00000001FF
